{
    "abi": [
        {
            "inputs": [],
            "stateMutability": "nonpayable",
            "type": "constructor"
        },
        {
            "anonymous": false,
            "inputs": [
                {
                    "indexed": true,
                    "internalType": "address",
                    "name": "addr",
                    "type": "address"
                },
                {
                    "indexed": false,
                    "internalType": "string",
                    "name": "name",
                    "type": "string"
                },
                {
                    "indexed": false,
                    "internalType": "address",
                    "name": "seekerRep",
                    "type": "address"
                },
                {
                    "indexed": false,
                    "internalType": "address",
                    "name": "providerRep",
                    "type": "address"
                }
            ],
            "name": "MarketplaceCreated",
            "type": "event"
        },
        {
            "inputs": [
                {
                    "internalType": "address",
                    "name": "token",
                    "type": "address"
                },
                {
                    "internalType": "string",
                    "name": "name",
                    "type": "string"
                },
                {
                    "internalType": "uint256",
                    "name": "fee",
                    "type": "uint256"
                },
                {
                    "internalType": "string",
                    "name": "metadata",
                    "type": "string"
                }
            ],
            "name": "create",
            "outputs": [
                {
                    "internalType": "contract Marketplace",
                    "name": "marketplace",
                    "type": "address"
                }
            ],
            "stateMutability": "nonpayable",
            "type": "function"
        },
        {
            "inputs": [],
            "name": "masterMarketplace",
            "outputs": [
                {
                    "internalType": "address",
                    "name": "",
                    "type": "address"
                }
            ],
            "stateMutability": "view",
            "type": "function"
        },
        {
            "inputs": [],
            "name": "masterRep",
            "outputs": [
                {
                    "internalType": "address",
                    "name": "",
                    "type": "address"
                }
            ],
            "stateMutability": "view",
            "type": "function"
        }
    ],
    "bytecode": {
        "object": "0x608060405234801561001057600080fd5b5060405161001d906100b2565b604051809103906000f080158015610039573d6000803e3d6000fd5b50600080546001600160a01b0319166001600160a01b0392909216919091178155604051610066906100bf565b60ff9091168152602001604051809103906000f08015801561008c573d6000803e3d6000fd5b50600180546001600160a01b0319166001600160a01b03929092169190911790556100cc565b612b798061097983390190565b6119d6806134f283390190565b61089e806100db6000396000f3fe608060405234801561001057600080fd5b50600436106100415760003560e01c8063129ef6dd14610046578063e8e459e01461008f578063faaa67ab146100a2575b600080fd5b6001546100669073ffffffffffffffffffffffffffffffffffffffff1681565b60405173ffffffffffffffffffffffffffffffffffffffff909116815260200160405180910390f35b61006661009d3660046106ba565b6100c2565b6000546100669073ffffffffffffffffffffffffffffffffffffffff1681565b60015460009081906100e99073ffffffffffffffffffffffffffffffffffffffff166104fa565b6001549091506000906101119073ffffffffffffffffffffffffffffffffffffffff166104fa565b6040517f6ee5741a0000000000000000000000000000000000000000000000000000000081526060600480830191909152600960648301527f5365656b65725265700000000000000000000000000000000000000000000000608483015260a0602483015260a48201527f535752530000000000000000000000000000000000000000000000000000000060c482015230604482015290915073ffffffffffffffffffffffffffffffffffffffff831690636ee5741a9060e401600060405180830381600087803b1580156101e557600080fd5b505af11580156101f9573d6000803e3d6000fd5b50506040517f6ee5741a0000000000000000000000000000000000000000000000000000000081526060600480830191909152600b60648301527f50726f7669646572526570000000000000000000000000000000000000000000608483015260a0602483015260a48201527f535752500000000000000000000000000000000000000000000000000000000060c482015230604482015273ffffffffffffffffffffffffffffffffffffffff84169250636ee5741a915060e401600060405180830381600087803b1580156102ce57600080fd5b505af11580156102e2573d6000803e3d6000fd5b5050600054610309925073ffffffffffffffffffffffffffffffffffffffff1690506104fa565b6040517fe37e74bb00000000000000000000000000000000000000000000000000000000815290935073ffffffffffffffffffffffffffffffffffffffff84169063e37e74bb9061036a908a908a908a908a9033908a908a906004016107be565b600060405180830381600087803b15801561038457600080fd5b505af1158015610398573d6000803e3d6000fd5b50506040517f13af403500000000000000000000000000000000000000000000000000000000815273ffffffffffffffffffffffffffffffffffffffff8681166004830152851692506313af40359150602401600060405180830381600087803b15801561040557600080fd5b505af1158015610419573d6000803e3d6000fd5b50506040517f13af403500000000000000000000000000000000000000000000000000000000815273ffffffffffffffffffffffffffffffffffffffff8681166004830152841692506313af40359150602401600060405180830381600087803b15801561048657600080fd5b505af115801561049a573d6000803e3d6000fd5b505050508273ffffffffffffffffffffffffffffffffffffffff167f2f40db475ae97ff230a82ffb6280a91aa24977a8ce9b285b77ae5b93bd25c2c38784846040516104e893929190610828565b60405180910390a25050949350505050565b60006040517f3d602d80600a3d3981f3363d3d373d3d3d363d7300000000000000000000000081528260601b60148201527f5af43d82803e903d91602b57fd5bf3000000000000000000000000000000000060288201526037816000f091505073ffffffffffffffffffffffffffffffffffffffff81166105db576040517f08c379a000000000000000000000000000000000000000000000000000000000815260206004820152601660248201527f455243313136373a20637265617465206661696c656400000000000000000000604482015260640160405180910390fd5b919050565b7f4e487b7100000000000000000000000000000000000000000000000000000000600052604160045260246000fd5b600082601f83011261062057600080fd5b813567ffffffffffffffff8082111561063b5761063b6105e0565b604051601f83017fffffffffffffffffffffffffffffffffffffffffffffffffffffffffffffffe0908116603f01168101908282118183101715610681576106816105e0565b8160405283815286602085880101111561069a57600080fd5b836020870160208301376000602085830101528094505050505092915050565b600080600080608085870312156106d057600080fd5b843573ffffffffffffffffffffffffffffffffffffffff811681146106f457600080fd5b9350602085013567ffffffffffffffff8082111561071157600080fd5b61071d8883890161060f565b945060408701359350606087013591508082111561073a57600080fd5b506107478782880161060f565b91505092959194509250565b6000815180845260005b818110156107795760208185018101518683018201520161075d565b8181111561078b576000602083870101525b50601f017fffffffffffffffffffffffffffffffffffffffffffffffffffffffffffffffe0169290920160200192915050565b600073ffffffffffffffffffffffffffffffffffffffff808a16835260e060208401526107ee60e084018a610753565b88604085015283810360608501526108068189610753565b96821660808501525093841660a083015250911660c090910152949350505050565b60608152600061083b6060830186610753565b73ffffffffffffffffffffffffffffffffffffffff9485166020840152929093166040909101529291505056fea26469706673582212202a54457bc65f0c7e1f739ffbedc4bb8a3aed15609afc97c10212e09e422c555c64736f6c634300080f0033608060405234801561001057600080fd5b50600080546001600160a01b031990811682556001805490911690556040518190819033907f8292fce18fa69edf4db7b94ea2e58241df0ae57f97e0a6c9b29067028bf92d76908390a36040516001600160a01b0382169033907fa3396fd7f6e0a21b50e5089d2da70d5ac0a3bbbd1f617a93f134b7638998019890600090a35050612ad8806100a16000396000f3fe608060405234801561001057600080fd5b50600436106101a35760003560e01c80637a9e5e4b116100ee578063bfb231d211610097578063ddca3f4311610071578063ddca3f4314610408578063df376ea714610411578063e37e74bb14610424578063fc0c546a1461043757600080fd5b8063bfb231d214610374578063c5a1d7f0146103f7578063ca6158cb146103ff57600080fd5b806384f5f300116100c857806384f5f300146103215780638da5cb5b14610334578063bf7e214f1461035457600080fd5b80637a9e5e4b146102db5780637f0dc5e8146102ee5780637f301b831461030e57600080fd5b806351563f8e1161015057806364d3d4361161012a57806364d3d436146102a257806369fe0e2d146102b5578063738e2d26146102c857600080fd5b806351563f8e1461022a578063517095c81461023d5780635b8d02d71461028257600080fd5b806333ea51a81161018157806333ea51a8146101ee5780633644e5151461020157806346b6b0691461021757600080fd5b806306fdde03146101a857806313af4035146101c6578063248aefa0146101db575b600080fd5b6101b0610457565b6040516101bd9190612111565b60405180910390f35b6101d96101d4366004612187565b6104e5565b005b6101d96101e93660046121c1565b6105ee565b6101d96101fc366004612187565b610930565b610209610a3e565b6040519081526020016101bd565b6101d96102253660046121fc565b610a5d565b6101d96102383660046121fc565b610d2c565b60055461025d9073ffffffffffffffffffffffffffffffffffffffff1681565b60405173ffffffffffffffffffffffffffffffffffffffff90911681526020016101bd565b60075461025d9073ffffffffffffffffffffffffffffffffffffffff1681565b6101d96102b0366004612215565b610ec9565b6101d96102c33660046121fc565b610f38565b6101d96102d63660046121fc565b611000565b6101d96102e9366004612187565b611190565b60065461025d9073ffffffffffffffffffffffffffffffffffffffff1681565b6101d961031c366004612265565b6112ed565b61020961032f3660046122d7565b6113cb565b60005461025d9073ffffffffffffffffffffffffffffffffffffffff1681565b60015461025d9073ffffffffffffffffffffffffffffffffffffffff1681565b6103e36103823660046121fc565b600a602052600090815260409020805460018201546002830154600384015460048501546005860154600687015460079097015460ff90961696949593949293919273ffffffffffffffffffffffffffffffffffffffff9182169291169088565b6040516101bd989796959493929190612363565b6101b06116f9565b61020960095481565b61020960035481565b6101d961041f3660046122d7565b611706565b6101d961043236600461249a565b6118eb565b60045461025d9073ffffffffffffffffffffffffffffffffffffffff1681565b6002805461046490612554565b80601f016020809104026020016040519081016040528092919081815260200182805461049090612554565b80156104dd5780601f106104b2576101008083540402835291602001916104dd565b820191906000526020600020905b8154815290600101906020018083116104c057829003601f168201915b505050505081565b610513336000357fffffffff0000000000000000000000000000000000000000000000000000000016611b09565b61057e576040517f08c379a000000000000000000000000000000000000000000000000000000000815260206004820152600c60248201527f554e415554484f52495a4544000000000000000000000000000000000000000060448201526064015b60405180910390fd5b600080547fffffffffffffffffffffffff00000000000000000000000000000000000000001673ffffffffffffffffffffffffffffffffffffffff83169081178255604051909133917f8292fce18fa69edf4db7b94ea2e58241df0ae57f97e0a6c9b29067028bf92d769190a350565b6000848152600a60205260409020600b610609858585611c1c565b60405161061691906125a7565b9081526040519081900360200190205460ff1615610690576040517f08c379a000000000000000000000000000000000000000000000000000000000815260206004820152601560248201527f5349474e41545552455f494e56414c49444154454400000000000000000000006044820152606401610575565b6001815460ff1660068111156106a8576106a86122f9565b1461070f576040517f08c379a000000000000000000000000000000000000000000000000000000000815260206004820152600d60248201527f4954454d5f4e4f545f4f50454e000000000000000000000000000000000000006044820152606401610575565b60068101546107389073ffffffffffffffffffffffffffffffffffffffff163387878787611c57565b600454600182015461077f9173ffffffffffffffffffffffffffffffffffffffff16903390309061076b906002906125f2565b856002015461077a919061262d565b611ec6565b60045460075460018301546107ba9273ffffffffffffffffffffffffffffffffffffffff9081169216906107b5906002906125f2565b611f8c565b600581810180547fffffffffffffffffffffffff0000000000000000000000000000000000000000163390811790915590546040517f70a08231000000000000000000000000000000000000000000000000000000008152600481019290925273ffffffffffffffffffffffffffffffffffffffff16906370a0823190602401602060405180830381865afa158015610857573d6000803e3d6000fd5b505050506040513d601f19601f8201168201806040525081019061087b9190612645565b600382015580547fffffffffffffffffffffffffffffffffffffffffffffffffffffffffffffff001660021781556005810154604051869173ffffffffffffffffffffffffffffffffffffffff16907fcd12eb237f0704080f987521499b86eed6020b9b4b80e8eb7200a45f4ff3ec7390600090a3847f59c855daf8ddf9a374a821197d72658df6193a64694dbed10780a4c2858a7c466002604051610921919061265e565b60405180910390a25050505050565b61095e336000357fffffffff0000000000000000000000000000000000000000000000000000000016611b09565b6109c4576040517f08c379a000000000000000000000000000000000000000000000000000000000815260206004820152600c60248201527f554e415554484f52495a454400000000000000000000000000000000000000006044820152606401610575565b600780547fffffffffffffffffffffffff00000000000000000000000000000000000000001673ffffffffffffffffffffffffffffffffffffffff83169081179091556040519081527fb5f860593f15010bb36e33839f7e08b12177a5d6ad7cde8a087ae1ca6eea5de3906020015b60405180910390a150565b6000600c544614610a5657610a5161204b565b905090565b50600d5490565b6000818152600a60205260409020600681015473ffffffffffffffffffffffffffffffffffffffff163314610aee576040517f08c379a000000000000000000000000000000000000000000000000000000000815260206004820152600c60248201527f554e415554484f52495a454400000000000000000000000000000000000000006044820152606401610575565b6002815460ff166006811115610b0657610b066122f9565b14610b6d576040517f08c379a000000000000000000000000000000000000000000000000000000000815260206004820152600f60248201527f4445414c5f4e4f545f46554e44454400000000000000000000000000000000006044820152606401610575565b6004546005820154600280840154610ba49373ffffffffffffffffffffffffffffffffffffffff9081169316916107b5919061266c565b60058054828201546040517f40c10f1900000000000000000000000000000000000000000000000000000000815273ffffffffffffffffffffffffffffffffffffffff9182166004820152602481019390935216906340c10f1990604401600060405180830381600087803b158015610c1c57600080fd5b505af1158015610c30573d6000803e3d6000fd5b505060068054908401546040517f40c10f1900000000000000000000000000000000000000000000000000000000815273ffffffffffffffffffffffffffffffffffffffff918216600482015260056024820152911692506340c10f199150604401600060405180830381600087803b158015610cac57600080fd5b505af1158015610cc0573d6000803e3d6000fd5b505082547fffffffffffffffffffffffffffffffffffffffffffffffffffffffffffffff0016600390811784556040518593507f59c855daf8ddf9a374a821197d72658df6193a64694dbed10780a4c2858a7c469250610d20919061265e565b60405180910390a25050565b6000818152600a602052604090206001815460ff166006811115610d5257610d526122f9565b14610db9576040517f08c379a000000000000000000000000000000000000000000000000000000000815260206004820152600d60248201527f4445414c5f4e4f545f4f50454e000000000000000000000000000000000000006044820152606401610575565b600681015473ffffffffffffffffffffffffffffffffffffffff163314610e3c576040517f08c379a000000000000000000000000000000000000000000000000000000000815260206004820152600c60248201527f554e415554484f52495a454400000000000000000000000000000000000000006044820152606401610575565b60045460068201546002830154610e6d9273ffffffffffffffffffffffffffffffffffffffff908116921690611f8c565b80547fffffffffffffffffffffffffffffffffffffffffffffffffffffffffffffff00166006908117825560405183917f59c855daf8ddf9a374a821197d72658df6193a64694dbed10780a4c2858a7c4691610d20919061265e565b610ed7338587868686611c57565b6001600b610ee6858585611c1c565b604051610ef391906125a7565b90815260405190819003602001902080549115157fffffffffffffffffffffffffffffffffffffffffffffffffffffffffffffff009092169190911790555050505050565b610f66336000357fffffffff0000000000000000000000000000000000000000000000000000000016611b09565b610fcc576040517f08c379a000000000000000000000000000000000000000000000000000000000815260206004820152600c60248201527f554e415554484f52495a454400000000000000000000000000000000000000006044820152606401610575565b60038190556040518181527e172ddfc5ae88d08b3de01a5a187667c37a5a53989e8c175055cb6c993792a790602001610a33565b6000818152600a602052604090206002815460ff166006811115611026576110266122f9565b1461108d576040517f08c379a000000000000000000000000000000000000000000000000000000000815260206004820152600f60248201527f4445414c5f4e4f545f46554e44454400000000000000000000000000000000006044820152606401610575565b600581015473ffffffffffffffffffffffffffffffffffffffff163314806110ce5750600681015473ffffffffffffffffffffffffffffffffffffffff1633145b611134576040517f08c379a000000000000000000000000000000000000000000000000000000000815260206004820152600c60248201527f554e415554484f52495a454400000000000000000000000000000000000000006044820152606401610575565b80547fffffffffffffffffffffffffffffffffffffffffffffffffffffffffffffff00166004908117825560405183917f59c855daf8ddf9a374a821197d72658df6193a64694dbed10780a4c2858a7c4691610d20919061265e565b60005473ffffffffffffffffffffffffffffffffffffffff1633148061127357506001546040517fb70096130000000000000000000000000000000000000000000000000000000081523360048201523060248201526000357fffffffff0000000000000000000000000000000000000000000000000000000016604482015273ffffffffffffffffffffffffffffffffffffffff9091169063b700961390606401602060405180830381865afa15801561124f573d6000803e3d6000fd5b505050506040513d601f19601f8201168201806040525081019061127391906126a9565b61127c57600080fd5b600180547fffffffffffffffffffffffff00000000000000000000000000000000000000001673ffffffffffffffffffffffffffffffffffffffff831690811790915560405133907fa3396fd7f6e0a21b50e5089d2da70d5ac0a3bbbd1f617a93f134b7638998019890600090a350565b61131b336000357fffffffff0000000000000000000000000000000000000000000000000000000016611b09565b611381576040517f08c379a000000000000000000000000000000000000000000000000000000000815260206004820152600c60248201527f554e415554484f52495a454400000000000000000000000000000000000000006044820152606401610575565b600861138e82848361271a565b507ffac01c583cf42a2b8b892739cf72f25289b3ab65fd58483c3800788918a67ea760086040516113bf9190612834565b60405180910390a15050565b60098054600181019091556003546000906113e8906002906125f2565b6113f2908561262d565b9050600080838152600a602052604090205460ff166006811115611418576114186122f9565b1461147f576040517f08c379a000000000000000000000000000000000000000000000000000000000815260206004820152601360248201527f4954454d5f414c52454144595f455849535453000000000000000000000000006044820152606401610575565b6004546114a49073ffffffffffffffffffffffffffffffffffffffff16333084611ec6565b6004546007546003546114d89273ffffffffffffffffffffffffffffffffffffffff9081169216906107b5906002906125f2565b6006546040517f70a0823100000000000000000000000000000000000000000000000000000000815233600482015260009173ffffffffffffffffffffffffffffffffffffffff16906370a0823190602401602060405180830381865afa158015611547573d6000803e3d6000fd5b505050506040513d601f19601f8201168201806040525081019061156b9190612645565b604080516101008101909152909150806001815260035460208083019190915260408083018990526000606084018190526080840186905260a084018190523360c085015260e0909301889052868352600a90915290208151815482907fffffffffffffffffffffffffffffffffffffffffffffffffffffffffffffff001660018360068111156115fe576115fe6122f9565b021790555060208281015160018301556040808401516002840155606080850151600380860191909155608080870151600487015560a08088015160058801805473ffffffffffffffffffffffffffffffffffffffff9283167fffffffffffffffffffffffff00000000000000000000000000000000000000009182161790915560c08a015160068a01805491909316911617905560e0909701516007909601959095555482518a81529384018b90529183019190915281018490524291810191909152849133917fbe5037713a93b4fde6e911f26ff94fd6b89224c8da3376215d9dfa630a0870c8910160405180910390a3505092915050565b6008805461046490612554565b6000828152600a6020526040902060075473ffffffffffffffffffffffffffffffffffffffff163314611795576040517f08c379a000000000000000000000000000000000000000000000000000000000815260206004820152600c60248201527f554e415554484f52495a454400000000000000000000000000000000000000006044820152606401610575565b6004815460ff1660068111156117ad576117ad6122f9565b14611814576040517f08c379a000000000000000000000000000000000000000000000000000000000815260206004820152601160248201527f4445414c5f4e4f545f44495350555445440000000000000000000000000000006044820152606401610575565b60045460068201546118409173ffffffffffffffffffffffffffffffffffffffff908116911684611f8c565b60045460058201546002808401546118829373ffffffffffffffffffffffffffffffffffffffff90811693169186916118789161266c565b6107b591906128dd565b80547fffffffffffffffffffffffffffffffffffffffffffffffffffffffffffffff00166005908117825560405184917f59c855daf8ddf9a374a821197d72658df6193a64694dbed10780a4c2858a7c46916118de919061265e565b60405180910390a2505050565b60045473ffffffffffffffffffffffffffffffffffffffff161561196b576040517f08c379a000000000000000000000000000000000000000000000000000000000815260206004820152601360248201527f414c52454144595f494e495449414c495a4544000000000000000000000000006044820152606401610575565b73ffffffffffffffffffffffffffffffffffffffff87166119e8576040517f08c379a000000000000000000000000000000000000000000000000000000000815260206004820152600d60248201527f494e56414c49445f544f4b454e000000000000000000000000000000000000006044820152606401610575565b60016009556006805473ffffffffffffffffffffffffffffffffffffffff8085167fffffffffffffffffffffffff00000000000000000000000000000000000000009283161790925560058054928416929091169190911790556002611a4e87826128f4565b50600480547fffffffffffffffffffffffff00000000000000000000000000000000000000001673ffffffffffffffffffffffffffffffffffffffff89161790556008611a9b85826128f4565b5060038590556007805473ffffffffffffffffffffffffffffffffffffffff85167fffffffffffffffffffffffff0000000000000000000000000000000000000000918216811790925560008054909116909117905546600c55611afd61204b565b600d5550505050505050565b60015460009073ffffffffffffffffffffffffffffffffffffffff168015801590611bed57506040517fb700961300000000000000000000000000000000000000000000000000000000815273ffffffffffffffffffffffffffffffffffffffff85811660048301523060248301527fffffffff000000000000000000000000000000000000000000000000000000008516604483015282169063b700961390606401602060405180830381865afa158015611bc9573d6000803e3d6000fd5b505050506040513d601f19601f82011682018060405250810190611bed91906126a9565b80611c12575060005473ffffffffffffffffffffffffffffffffffffffff8581169116145b9150505b92915050565b604080516041808252608082019092526060916020820181803683370190505090508260208201528160408201528360608201539392505050565b7f7fffffffffffffffffffffffffffffff5d576e7357a4501ddfe92f46681b20a0811115611ce1576040517f08c379a000000000000000000000000000000000000000000000000000000000815260206004820152601360248201527f494e56414c49445f5349474e41545552455f53000000000000000000000000006044820152606401610575565b60006001611ced610a3e565b604080517f6b62fb02453999fefe71b869b8f01a52987c07f3f6caf60bdac6d9c43ffd3059602082015273ffffffffffffffffffffffffffffffffffffffff808c169282019290925290891660608201526080810188905260a00160405160208183030381529060405280519060200120604051602001611da09291907f190100000000000000000000000000000000000000000000000000000000000081526002810192909252602282015260420190565b604080517fffffffffffffffffffffffffffffffffffffffffffffffffffffffffffffffe08184030181528282528051602091820120600084529083018083525260ff871690820152606081018590526080810184905260a0016020604051602081039080840390855afa158015611e1c573d6000803e3d6000fd5b5050506020604051035190508673ffffffffffffffffffffffffffffffffffffffff168173ffffffffffffffffffffffffffffffffffffffff1614611ebd576040517f08c379a000000000000000000000000000000000000000000000000000000000815260206004820152600e60248201527f494e56414c49445f5349474e45520000000000000000000000000000000000006044820152606401610575565b50505050505050565b60006040517f23b872dd0000000000000000000000000000000000000000000000000000000081528460048201528360248201528260448201526020600060648360008a5af13d15601f3d1160016000511416171691505080611f85576040517f08c379a000000000000000000000000000000000000000000000000000000000815260206004820152601460248201527f5452414e534645525f46524f4d5f4641494c45440000000000000000000000006044820152606401610575565b5050505050565b60006040517fa9059cbb000000000000000000000000000000000000000000000000000000008152836004820152826024820152602060006044836000895af13d15601f3d1160016000511416171691505080612045576040517f08c379a000000000000000000000000000000000000000000000000000000000815260206004820152600f60248201527f5452414e534645525f4641494c454400000000000000000000000000000000006044820152606401610575565b50505050565b60007f8b73c3c69bb8fe3d512ecc4cf759cc79239f7b179b0ffacaa9a75d522b39400f600260405161207d9190612a0e565b6040805191829003822060208301939093528101919091527fc89efdaa54c0f20c7adf612882df0950f5a951637e0307cdcb4c672f298b8bc660608201524660808201523060a082015260c00160405160208183030381529060405280519060200120905090565b60005b838110156121005781810151838201526020016120e8565b838111156120455750506000910152565b60208152600082518060208401526121308160408501602087016120e5565b601f017fffffffffffffffffffffffffffffffffffffffffffffffffffffffffffffffe0169190910160400192915050565b73ffffffffffffffffffffffffffffffffffffffff8116811461218457600080fd5b50565b60006020828403121561219957600080fd5b81356121a481612162565b9392505050565b803560ff811681146121bc57600080fd5b919050565b600080600080608085870312156121d757600080fd5b843593506121e7602086016121ab565b93969395505050506040820135916060013590565b60006020828403121561220e57600080fd5b5035919050565b600080600080600060a0868803121561222d57600080fd5b85359450602086013561223f81612162565b935061224d604087016121ab565b94979396509394606081013594506080013592915050565b6000806020838503121561227857600080fd5b823567ffffffffffffffff8082111561229057600080fd5b818501915085601f8301126122a457600080fd5b8135818111156122b357600080fd5b8660208285010111156122c557600080fd5b60209290920196919550909350505050565b600080604083850312156122ea57600080fd5b50508035926020909101359150565b7f4e487b7100000000000000000000000000000000000000000000000000000000600052602160045260246000fd5b6007811061235f577f4e487b7100000000000000000000000000000000000000000000000000000000600052602160045260246000fd5b9052565b6101008101612372828b612328565b602082019890985260408101969096526060860194909452608085019290925273ffffffffffffffffffffffffffffffffffffffff90811660a08501521660c083015260e090910152919050565b7f4e487b7100000000000000000000000000000000000000000000000000000000600052604160045260246000fd5b600082601f83011261240057600080fd5b813567ffffffffffffffff8082111561241b5761241b6123c0565b604051601f83017fffffffffffffffffffffffffffffffffffffffffffffffffffffffffffffffe0908116603f01168101908282118183101715612461576124616123c0565b8160405283815286602085880101111561247a57600080fd5b836020870160208301376000602085830101528094505050505092915050565b600080600080600080600060e0888a0312156124b557600080fd5b87356124c081612162565b9650602088013567ffffffffffffffff808211156124dd57600080fd5b6124e98b838c016123ef565b975060408a0135965060608a013591508082111561250657600080fd5b506125138a828b016123ef565b945050608088013561252481612162565b925060a088013561253481612162565b915060c088013561254481612162565b8091505092959891949750929550565b600181811c9082168061256857607f821691505b6020821081036125a1577f4e487b7100000000000000000000000000000000000000000000000000000000600052602260045260246000fd5b50919050565b600082516125b98184602087016120e5565b9190910192915050565b7f4e487b7100000000000000000000000000000000000000000000000000000000600052601160045260246000fd5b600082612628577f4e487b7100000000000000000000000000000000000000000000000000000000600052601260045260246000fd5b500490565b60008219821115612640576126406125c3565b500190565b60006020828403121561265757600080fd5b5051919050565b60208101611c168284612328565b6000817fffffffffffffffffffffffffffffffffffffffffffffffffffffffffffffffff04831182151516156126a4576126a46125c3565b500290565b6000602082840312156126bb57600080fd5b815180151581146121a457600080fd5b601f82111561271557600081815260208120601f850160051c810160208610156126f25750805b601f850160051c820191505b81811015612711578281556001016126fe565b5050505b505050565b67ffffffffffffffff831115612732576127326123c0565b612746836127408354612554565b836126cb565b6000601f84116001811461279857600085156127625750838201355b7fffffffffffffffffffffffffffffffffffffffffffffffffffffffffffffffff600387901b1c1916600186901b178355611f85565b6000838152602090207fffffffffffffffffffffffffffffffffffffffffffffffffffffffffffffffe0861690835b828110156127e757868501358255602094850194600190920191016127c7565b5086821015612822577fffffffffffffffffffffffffffffffffffffffffffffffffffffffffffffffff60f88860031b161c19848701351681555b505060018560011b0183555050505050565b600060208083526000845461284881612554565b8084870152604060018084166000811461286957600181146128a1576128cf565b7fffffffffffffffffffffffffffffffffffffffffffffffffffffffffffffff008516838a01528284151560051b8a010195506128cf565b896000528660002060005b858110156128c75781548b82018601529083019088016128ac565b8a0184019650505b509398975050505050505050565b6000828210156128ef576128ef6125c3565b500390565b815167ffffffffffffffff81111561290e5761290e6123c0565b6129228161291c8454612554565b846126cb565b602080601f831160018114612975576000841561293f5750858301515b7fffffffffffffffffffffffffffffffffffffffffffffffffffffffffffffffff600386901b1c1916600185901b178555612711565b6000858152602081207fffffffffffffffffffffffffffffffffffffffffffffffffffffffffffffffe08616915b828110156129c2578886015182559484019460019091019084016129a3565b50858210156129fe57878501517fffffffffffffffffffffffffffffffffffffffffffffffffffffffffffffffff600388901b60f8161c191681555b5050505050600190811b01905550565b6000808354612a1c81612554565b60018281168015612a345760018114612a6757612a96565b7fffffffffffffffffffffffffffffffffffffffffffffffffffffffffffffff0084168752821515830287019450612a96565b8760005260208060002060005b85811015612a8d5781548a820152908401908201612a74565b50505082870194505b5092969550505050505056fea2646970667358221220cffa3a29e326551fd6d929b19c3e3ae04b6145a20ae2876020e77237c88472a564736f6c634300080f003360e06040523480156200001157600080fd5b50604051620019d6380380620019d68339810160408190526200003491620001c1565b604080516020808201835260008083528351918201909352828152829190848362000060848262000292565b5060016200006f838262000292565b5060ff81166080524660a0526200008562000125565b60c0525050600680546001600160a01b038086166001600160a01b03199283168117909355600780549186169190921617905560405190915033907f8292fce18fa69edf4db7b94ea2e58241df0ae57f97e0a6c9b29067028bf92d7690600090a36040516001600160a01b0382169033907fa3396fd7f6e0a21b50e5089d2da70d5ac0a3bbbd1f617a93f134b7638998019890600090a3505050620003dc565b60007f8b73c3c69bb8fe3d512ecc4cf759cc79239f7b179b0ffacaa9a75d522b39400f60006040516200015991906200035e565b6040805191829003822060208301939093528101919091527fc89efdaa54c0f20c7adf612882df0950f5a951637e0307cdcb4c672f298b8bc660608201524660808201523060a082015260c00160405160208183030381529060405280519060200120905090565b600060208284031215620001d457600080fd5b815160ff81168114620001e657600080fd5b9392505050565b634e487b7160e01b600052604160045260246000fd5b600181811c908216806200021857607f821691505b6020821081036200023957634e487b7160e01b600052602260045260246000fd5b50919050565b601f8211156200028d57600081815260208120601f850160051c81016020861015620002685750805b601f850160051c820191505b81811015620002895782815560010162000274565b5050505b505050565b81516001600160401b03811115620002ae57620002ae620001ed565b620002c681620002bf845462000203565b846200023f565b602080601f831160018114620002fe5760008415620002e55750858301515b600019600386901b1c1916600185901b17855562000289565b600085815260208120601f198616915b828110156200032f578886015182559484019460019091019084016200030e565b50858210156200034e5787850151600019600388901b60f8161c191681555b5050505050600190811b01905550565b60008083546200036e8162000203565b600182811680156200038957600181146200039f57620003d0565b60ff1984168752821515830287019450620003d0565b8760005260208060002060005b85811015620003c75781548a820152908401908201620003ac565b50505082870194505b50929695505050505050565b60805160a05160c0516115ca6200040c60003960006106c10152600061068c015260006101c001526115ca6000f3fe608060405234801561001057600080fd5b50600436106101365760003560e01c806370a08231116100b257806395d89b4111610081578063bf7e214f11610066578063bf7e214f146102d5578063d505accf146102f5578063dd62ed3e1461030857600080fd5b806395d89b41146102ba578063a9059cbb146102c257600080fd5b806370a08231146102225780637a9e5e4b146102425780637ecebe00146102555780638da5cb5b1461027557600080fd5b806323b872dd116101095780633644e515116100ee5780633644e515146101f457806340c10f19146101fc5780636ee5741a1461020f57600080fd5b806323b872dd146101a8578063313ce567146101bb57600080fd5b806306fdde031461013b578063095ea7b31461015957806313af40351461017c57806318160ddd14610191575b600080fd5b610143610333565b6040516101509190610f99565b60405180910390f35b61016c610167366004611031565b6103c1565b6040519015158152602001610150565b61018f61018a36600461105d565b61043a565b005b61019a60025481565b604051908152602001610150565b61016c6101b6366004611081565b610544565b6101e27f000000000000000000000000000000000000000000000000000000000000000081565b60405160ff9091168152602001610150565b61019a610688565b61018f61020a366004611031565b6106e3565b61018f61021d36600461119c565b610785565b61019a61023036600461105d565b60036020526000908152604090205481565b61018f61025036600461105d565b610868565b61019a61026336600461105d565b60056020526000908152604090205481565b6006546102959073ffffffffffffffffffffffffffffffffffffffff1681565b60405173ffffffffffffffffffffffffffffffffffffffff9091168152602001610150565b6101436109c5565b61016c6102d0366004611031565b6109d2565b6007546102959073ffffffffffffffffffffffffffffffffffffffff1681565b61018f610303366004611214565b610a57565b61019a61031636600461128b565b600460209081526000928352604080842090915290825290205481565b60008054610340906112c4565b80601f016020809104026020016040519081016040528092919081815260200182805461036c906112c4565b80156103b95780601f1061038e576101008083540402835291602001916103b9565b820191906000526020600020905b81548152906001019060200180831161039c57829003601f168201915b505050505081565b33600081815260046020908152604080832073ffffffffffffffffffffffffffffffffffffffff8716808552925280832085905551919290917f8c5be1e5ebec7d5bd14f71427d1e84f3dd0314c0f7b2291e5b200ac8c7c3b925906104299086815260200190565b60405180910390a350600192915050565b610468336000357fffffffff0000000000000000000000000000000000000000000000000000000016610d76565b6104d3576040517f08c379a000000000000000000000000000000000000000000000000000000000815260206004820152600c60248201527f554e415554484f52495a4544000000000000000000000000000000000000000060448201526064015b60405180910390fd5b600680547fffffffffffffffffffffffff00000000000000000000000000000000000000001673ffffffffffffffffffffffffffffffffffffffff831690811790915560405133907f8292fce18fa69edf4db7b94ea2e58241df0ae57f97e0a6c9b29067028bf92d7690600090a350565b73ffffffffffffffffffffffffffffffffffffffff831660009081526004602090815260408083203384529091528120547fffffffffffffffffffffffffffffffffffffffffffffffffffffffffffffffff81146105d8576105a68382611346565b73ffffffffffffffffffffffffffffffffffffffff861660009081526004602090815260408083203384529091529020555b73ffffffffffffffffffffffffffffffffffffffff85166000908152600360205260408120805485929061060d908490611346565b909155505073ffffffffffffffffffffffffffffffffffffffff808516600081815260036020526040908190208054870190555190918716907fddf252ad1be2c89b69c2b068fc378daa952ba7f163c4a11628f55a4df523b3ef906106759087815260200190565b60405180910390a3506001949350505050565b60007f000000000000000000000000000000000000000000000000000000000000000046146106be576106b9610e87565b905090565b507f000000000000000000000000000000000000000000000000000000000000000090565b610711336000357fffffffff0000000000000000000000000000000000000000000000000000000016610d76565b610777576040517f08c379a000000000000000000000000000000000000000000000000000000000815260206004820152600c60248201527f554e415554484f52495a4544000000000000000000000000000000000000000060448201526064016104ca565b6107818282610f21565b5050565b60065473ffffffffffffffffffffffffffffffffffffffff1615610805576040517f08c379a000000000000000000000000000000000000000000000000000000000815260206004820152601360248201527f414c52454144595f494e495449414c495a45440000000000000000000000000060448201526064016104ca565b600061081184826113ac565b50600161081e83826113ac565b50600680547fffffffffffffffffffffffff00000000000000000000000000000000000000001673ffffffffffffffffffffffffffffffffffffffff929092169190911790555050565b60065473ffffffffffffffffffffffffffffffffffffffff1633148061094b57506007546040517fb70096130000000000000000000000000000000000000000000000000000000081523360048201523060248201526000357fffffffff0000000000000000000000000000000000000000000000000000000016604482015273ffffffffffffffffffffffffffffffffffffffff9091169063b700961390606401602060405180830381865afa158015610927573d6000803e3d6000fd5b505050506040513d601f19601f8201168201806040525081019061094b91906114c6565b61095457600080fd5b600780547fffffffffffffffffffffffff00000000000000000000000000000000000000001673ffffffffffffffffffffffffffffffffffffffff831690811790915560405133907fa3396fd7f6e0a21b50e5089d2da70d5ac0a3bbbd1f617a93f134b7638998019890600090a350565b60018054610340906112c4565b336000908152600360205260408120805483919083906109f3908490611346565b909155505073ffffffffffffffffffffffffffffffffffffffff8316600081815260036020526040908190208054850190555133907fddf252ad1be2c89b69c2b068fc378daa952ba7f163c4a11628f55a4df523b3ef906104299086815260200190565b42841015610ac1576040517f08c379a000000000000000000000000000000000000000000000000000000000815260206004820152601760248201527f5045524d49545f444541444c494e455f4558504952454400000000000000000060448201526064016104ca565b60006001610acd610688565b73ffffffffffffffffffffffffffffffffffffffff8a811660008181526005602090815260409182902080546001810190915582517f6e71edae12b1b97f4d1f60370fef10105fa2faae0126114a169c64845d6126c98184015280840194909452938d166060840152608083018c905260a083019390935260c08083018b90528151808403909101815260e0830190915280519201919091207f190100000000000000000000000000000000000000000000000000000000000061010083015261010282019290925261012281019190915261014201604080517fffffffffffffffffffffffffffffffffffffffffffffffffffffffffffffffe08184030181528282528051602091820120600084529083018083525260ff871690820152606081018590526080810184905260a0016020604051602081039080840390855afa158015610c1f573d6000803e3d6000fd5b50506040517fffffffffffffffffffffffffffffffffffffffffffffffffffffffffffffffe0015191505073ffffffffffffffffffffffffffffffffffffffff811615801590610c9a57508773ffffffffffffffffffffffffffffffffffffffff168173ffffffffffffffffffffffffffffffffffffffff16145b610d00576040517f08c379a000000000000000000000000000000000000000000000000000000000815260206004820152600e60248201527f494e56414c49445f5349474e455200000000000000000000000000000000000060448201526064016104ca565b73ffffffffffffffffffffffffffffffffffffffff90811660009081526004602090815260408083208a8516808552908352928190208990555188815291928a16917f8c5be1e5ebec7d5bd14f71427d1e84f3dd0314c0f7b2291e5b200ac8c7c3b925910160405180910390a350505050505050565b60075460009073ffffffffffffffffffffffffffffffffffffffff168015801590610e5a57506040517fb700961300000000000000000000000000000000000000000000000000000000815273ffffffffffffffffffffffffffffffffffffffff85811660048301523060248301527fffffffff000000000000000000000000000000000000000000000000000000008516604483015282169063b700961390606401602060405180830381865afa158015610e36573d6000803e3d6000fd5b505050506040513d601f19601f82011682018060405250810190610e5a91906114c6565b80610e7f575060065473ffffffffffffffffffffffffffffffffffffffff8581169116145b949350505050565b60007f8b73c3c69bb8fe3d512ecc4cf759cc79239f7b179b0ffacaa9a75d522b39400f6000604051610eb991906114e8565b6040805191829003822060208301939093528101919091527fc89efdaa54c0f20c7adf612882df0950f5a951637e0307cdcb4c672f298b8bc660608201524660808201523060a082015260c00160405160208183030381529060405280519060200120905090565b8060026000828254610f33919061157c565b909155505073ffffffffffffffffffffffffffffffffffffffff82166000818152600360209081526040808320805486019055518481527fddf252ad1be2c89b69c2b068fc378daa952ba7f163c4a11628f55a4df523b3ef910160405180910390a35050565b600060208083528351808285015260005b81811015610fc657858101830151858201604001528201610faa565b81811115610fd8576000604083870101525b50601f017fffffffffffffffffffffffffffffffffffffffffffffffffffffffffffffffe016929092016040019392505050565b73ffffffffffffffffffffffffffffffffffffffff8116811461102e57600080fd5b50565b6000806040838503121561104457600080fd5b823561104f8161100c565b946020939093013593505050565b60006020828403121561106f57600080fd5b813561107a8161100c565b9392505050565b60008060006060848603121561109657600080fd5b83356110a18161100c565b925060208401356110b18161100c565b929592945050506040919091013590565b7f4e487b7100000000000000000000000000000000000000000000000000000000600052604160045260246000fd5b600082601f83011261110257600080fd5b813567ffffffffffffffff8082111561111d5761111d6110c2565b604051601f83017fffffffffffffffffffffffffffffffffffffffffffffffffffffffffffffffe0908116603f01168101908282118183101715611163576111636110c2565b8160405283815286602085880101111561117c57600080fd5b836020870160208301376000602085830101528094505050505092915050565b6000806000606084860312156111b157600080fd5b833567ffffffffffffffff808211156111c957600080fd5b6111d5878388016110f1565b945060208601359150808211156111eb57600080fd5b506111f8868287016110f1565b92505060408401356112098161100c565b809150509250925092565b600080600080600080600060e0888a03121561122f57600080fd5b873561123a8161100c565b9650602088013561124a8161100c565b95506040880135945060608801359350608088013560ff8116811461126e57600080fd5b9699959850939692959460a0840135945060c09093013592915050565b6000806040838503121561129e57600080fd5b82356112a98161100c565b915060208301356112b98161100c565b809150509250929050565b600181811c908216806112d857607f821691505b602082108103611311577f4e487b7100000000000000000000000000000000000000000000000000000000600052602260045260246000fd5b50919050565b7f4e487b7100000000000000000000000000000000000000000000000000000000600052601160045260246000fd5b60008282101561135857611358611317565b500390565b601f8211156113a757600081815260208120601f850160051c810160208610156113845750805b601f850160051c820191505b818110156113a357828155600101611390565b5050505b505050565b815167ffffffffffffffff8111156113c6576113c66110c2565b6113da816113d484546112c4565b8461135d565b602080601f83116001811461142d57600084156113f75750858301515b7fffffffffffffffffffffffffffffffffffffffffffffffffffffffffffffffff600386901b1c1916600185901b1785556113a3565b6000858152602081207fffffffffffffffffffffffffffffffffffffffffffffffffffffffffffffffe08616915b8281101561147a5788860151825594840194600190910190840161145b565b50858210156114b657878501517fffffffffffffffffffffffffffffffffffffffffffffffffffffffffffffffff600388901b60f8161c191681555b5050505050600190811b01905550565b6000602082840312156114d857600080fd5b8151801515811461107a57600080fd5b60008083546114f6816112c4565b6001828116801561150e576001811461154157611570565b7fffffffffffffffffffffffffffffffffffffffffffffffffffffffffffffff0084168752821515830287019450611570565b8760005260208060002060005b858110156115675781548a82015290840190820161154e565b50505082870194505b50929695505050505050565b6000821982111561158f5761158f611317565b50019056fea2646970667358221220c649e93e51676c12176a8c9d77e2e1aa3e2fd2bc965b59075cdfeeb7041181c364736f6c634300080f0033",
        "linkReferences": {}
    },
    "methodIdentifiers": {
        "create(address,string,uint256,string)": "e8e459e0",
        "masterMarketplace()": "faaa67ab",
        "masterRep()": "129ef6dd"
    },
    "id": 13
}