{
  "abi": [
    {
      "inputs": [],
      "stateMutability": "nonpayable",
      "type": "constructor"
    },
    {
      "anonymous": false,
      "inputs": [
        {
          "indexed": true,
          "internalType": "address",
          "name": "user",
          "type": "address"
        },
        {
          "indexed": true,
          "internalType": "contract Authority",
          "name": "newAuthority",
          "type": "address"
        }
      ],
      "name": "AuthorityUpdated",
      "type": "event"
    },
    {
      "anonymous": false,
      "inputs": [
        {
          "indexed": true,
          "internalType": "contract Marketplace",
          "name": "addr",
          "type": "address"
        },
        {
          "indexed": false,
          "internalType": "string",
          "name": "name",
          "type": "string"
        }
      ],
      "name": "MarketplaceAdded",
      "type": "event"
    },
    {
      "anonymous": false,
      "inputs": [
        {
          "indexed": true,
          "internalType": "contract Marketplace",
          "name": "addr",
          "type": "address"
        }
      ],
      "name": "MarketplaceRemoved",
      "type": "event"
    },
    {
      "anonymous": false,
      "inputs": [
        {
          "indexed": true,
          "internalType": "address",
          "name": "user",
          "type": "address"
        },
        {
          "indexed": true,
          "internalType": "address",
          "name": "newOwner",
          "type": "address"
        }
      ],
      "name": "OwnerUpdated",
      "type": "event"
    },
    {
      "inputs": [
        {
          "internalType": "contract Marketplace",
          "name": "marketplace",
          "type": "address"
        }
      ],
      "name": "add",
      "outputs": [],
      "stateMutability": "nonpayable",
      "type": "function"
    },
    {
      "inputs": [],
      "name": "authority",
      "outputs": [
        {
          "internalType": "contract Authority",
          "name": "",
          "type": "address"
        }
      ],
      "stateMutability": "view",
      "type": "function"
    },
    {
      "inputs": [],
      "name": "count",
      "outputs": [
        {
          "internalType": "uint256",
          "name": "",
          "type": "uint256"
        }
      ],
      "stateMutability": "view",
      "type": "function"
    },
    {
      "inputs": [
        {
          "internalType": "uint256",
          "name": "",
          "type": "uint256"
        }
      ],
      "name": "marketplaces",
      "outputs": [
        {
          "internalType": "contract Marketplace",
          "name": "",
          "type": "address"
        }
      ],
      "stateMutability": "view",
      "type": "function"
    },
    {
      "inputs": [],
      "name": "owner",
      "outputs": [
        {
          "internalType": "address",
          "name": "",
          "type": "address"
        }
      ],
      "stateMutability": "view",
      "type": "function"
    },
    {
      "inputs": [
        {
          "internalType": "uint256",
          "name": "index",
          "type": "uint256"
        }
      ],
      "name": "remove",
      "outputs": [],
      "stateMutability": "nonpayable",
      "type": "function"
    },
    {
      "inputs": [
        {
          "internalType": "contract Authority",
          "name": "newAuthority",
          "type": "address"
        }
      ],
      "name": "setAuthority",
      "outputs": [],
      "stateMutability": "nonpayable",
      "type": "function"
    },
    {
      "inputs": [
        {
          "internalType": "address",
          "name": "newOwner",
          "type": "address"
        }
      ],
      "name": "setOwner",
      "outputs": [],
      "stateMutability": "nonpayable",
      "type": "function"
    }
  ],
  "bytecode": {
    "object": "0x608060405234801561001057600080fd5b5060008054336001600160a01b03199182168117835560018054909216909155604051909190829081907f8292fce18fa69edf4db7b94ea2e58241df0ae57f97e0a6c9b29067028bf92d76908490a36040516001600160a01b0382169033907fa3396fd7f6e0a21b50e5089d2da70d5ac0a3bbbd1f617a93f134b7638998019890600090a35050610d02806100a66000396000f3fe608060405234801561001057600080fd5b50600436106100885760003560e01c80634cc822151161005b5780634cc82215146101035780637a9e5e4b146101165780638da5cb5b14610129578063bf7e214f1461014957600080fd5b806306661abd1461008d5780630a3b0a4f146100a357806313af4035146100b85780632b64deec146100cb575b600080fd5b6002546040519081526020015b60405180910390f35b6100b66100b1366004610a39565b610169565b005b6100b66100c6366004610a39565b61044c565b6100de6100d9366004610a5d565b610550565b60405173ffffffffffffffffffffffffffffffffffffffff909116815260200161009a565b6100b6610111366004610a5d565b610587565b6100b6610124366004610a39565b6107a6565b6000546100de9073ffffffffffffffffffffffffffffffffffffffff1681565b6001546100de9073ffffffffffffffffffffffffffffffffffffffff1681565b610197336000357fffffffff0000000000000000000000000000000000000000000000000000000016610903565b610202576040517f08c379a000000000000000000000000000000000000000000000000000000000815260206004820152600c60248201527f554e415554484f52495a4544000000000000000000000000000000000000000060448201526064015b60405180910390fd5b600073ffffffffffffffffffffffffffffffffffffffff168173ffffffffffffffffffffffffffffffffffffffff1663fc0c546a6040518163ffffffff1660e01b8152600401602060405180830381865afa158015610265573d6000803e3d6000fd5b505050506040513d601f19601f820116820180604052508101906102899190610a76565b73ffffffffffffffffffffffffffffffffffffffff1603610306576040517f08c379a000000000000000000000000000000000000000000000000000000000815260206004820152600d60248201527f554e494e495449414c495a45440000000000000000000000000000000000000060448201526064016101f9565b6002805460018101825560009182527f405787fa12a823e0f2b7631cc41b3ba8828b3321ca811111fa75cd3aa3bb5ace0180547fffffffffffffffffffffffff00000000000000000000000000000000000000001673ffffffffffffffffffffffffffffffffffffffff8416908117909155604080517f06fdde03000000000000000000000000000000000000000000000000000000008152905191927f2b9532aee346a8bb62788795214d4405f285fa2a1838c766611c703645c8ca599284926306fdde039260048083019391928290030181865afa1580156103ee573d6000803e3d6000fd5b505050506040513d6000823e601f3d9081017fffffffffffffffffffffffffffffffffffffffffffffffffffffffffffffffe01682016040526104349190810190610af2565b6040516104419190610bbd565b60405180910390a250565b61047a336000357fffffffff0000000000000000000000000000000000000000000000000000000016610903565b6104e0576040517f08c379a000000000000000000000000000000000000000000000000000000000815260206004820152600c60248201527f554e415554484f52495a4544000000000000000000000000000000000000000060448201526064016101f9565b600080547fffffffffffffffffffffffff00000000000000000000000000000000000000001673ffffffffffffffffffffffffffffffffffffffff83169081178255604051909133917f8292fce18fa69edf4db7b94ea2e58241df0ae57f97e0a6c9b29067028bf92d769190a350565b6002818154811061056057600080fd5b60009182526020909120015473ffffffffffffffffffffffffffffffffffffffff16905081565b6105b5336000357fffffffff0000000000000000000000000000000000000000000000000000000016610903565b61061b576040517f08c379a000000000000000000000000000000000000000000000000000000000815260206004820152600c60248201527f554e415554484f52495a4544000000000000000000000000000000000000000060448201526064016101f9565b60006002828154811061063057610630610c0e565b6000918252602090912001546002805473ffffffffffffffffffffffffffffffffffffffff90921692509061066790600190610c3d565b8154811061067757610677610c0e565b6000918252602090912001546002805473ffffffffffffffffffffffffffffffffffffffff90921691849081106106b0576106b0610c0e565b9060005260206000200160006101000a81548173ffffffffffffffffffffffffffffffffffffffff021916908373ffffffffffffffffffffffffffffffffffffffff160217905550600280548061070957610709610c7b565b60008281526020812082017fffffffffffffffffffffffffffffffffffffffffffffffffffffffffffffffff90810180547fffffffffffffffffffffffff000000000000000000000000000000000000000016905590910190915560405173ffffffffffffffffffffffffffffffffffffffff8316917feac9a18305649744c83ff9f4d60058552b03f4e8df46a1cb28f7563fbd179b4291a25050565b60005473ffffffffffffffffffffffffffffffffffffffff1633148061088957506001546040517fb70096130000000000000000000000000000000000000000000000000000000081523360048201523060248201526000357fffffffff0000000000000000000000000000000000000000000000000000000016604482015273ffffffffffffffffffffffffffffffffffffffff9091169063b700961390606401602060405180830381865afa158015610865573d6000803e3d6000fd5b505050506040513d601f19601f820116820180604052508101906108899190610caa565b61089257600080fd5b600180547fffffffffffffffffffffffff00000000000000000000000000000000000000001673ffffffffffffffffffffffffffffffffffffffff831690811790915560405133907fa3396fd7f6e0a21b50e5089d2da70d5ac0a3bbbd1f617a93f134b7638998019890600090a350565b60015460009073ffffffffffffffffffffffffffffffffffffffff1680158015906109e757506040517fb700961300000000000000000000000000000000000000000000000000000000815273ffffffffffffffffffffffffffffffffffffffff85811660048301523060248301527fffffffff000000000000000000000000000000000000000000000000000000008516604483015282169063b700961390606401602060405180830381865afa1580156109c3573d6000803e3d6000fd5b505050506040513d601f19601f820116820180604052508101906109e79190610caa565b80610a0c575060005473ffffffffffffffffffffffffffffffffffffffff8581169116145b949350505050565b73ffffffffffffffffffffffffffffffffffffffff81168114610a3657600080fd5b50565b600060208284031215610a4b57600080fd5b8135610a5681610a14565b9392505050565b600060208284031215610a6f57600080fd5b5035919050565b600060208284031215610a8857600080fd5b8151610a5681610a14565b7f4e487b7100000000000000000000000000000000000000000000000000000000600052604160045260246000fd5b60005b83811015610add578181015183820152602001610ac5565b83811115610aec576000848401525b50505050565b600060208284031215610b0457600080fd5b815167ffffffffffffffff80821115610b1c57600080fd5b818401915084601f830112610b3057600080fd5b815181811115610b4257610b42610a93565b604051601f82017fffffffffffffffffffffffffffffffffffffffffffffffffffffffffffffffe0908116603f01168101908382118183101715610b8857610b88610a93565b81604052828152876020848701011115610ba157600080fd5b610bb2836020830160208801610ac2565b979650505050505050565b6020815260008251806020840152610bdc816040850160208701610ac2565b601f017fffffffffffffffffffffffffffffffffffffffffffffffffffffffffffffffe0169190910160400192915050565b7f4e487b7100000000000000000000000000000000000000000000000000000000600052603260045260246000fd5b600082821015610c76577f4e487b7100000000000000000000000000000000000000000000000000000000600052601160045260246000fd5b500390565b7f4e487b7100000000000000000000000000000000000000000000000000000000600052603160045260246000fd5b600060208284031215610cbc57600080fd5b81518015158114610a5657600080fdfea26469706673582212205b3696be83477bc0c2047447cc4b9ec608fc5c5dee2c4fa3609128b4fa18d19a64736f6c634300080f0033",
    "linkReferences": {}
  },
  "methodIdentifiers": {
    "add(address)": "0a3b0a4f",
    "authority()": "bf7e214f",
    "count()": "06661abd",
    "marketplaces(uint256)": "2b64deec",
    "owner()": "8da5cb5b",
    "remove(uint256)": "4cc82215",
    "setAuthority(address)": "7a9e5e4b",
    "setOwner(address)": "13af4035"
  },
  "id": 14
}